{
  "_format": "hh-sol-artifact-1",
  "contractName": "Atomic",
  "sourceName": "contracts/Atomic.sol",
  "abi": [
    {
      "inputs": [],
      "stateMutability": "nonpayable",
      "type": "constructor"
    },
    {
      "inputs": [
        {
          "internalType": "address",
          "name": "account",
          "type": "address"
        }
      ],
      "name": "addAdmin",
      "outputs": [],
      "stateMutability": "nonpayable",
      "type": "function"
    },
    {
      "inputs": [
        {
          "internalType": "uint256",
          "name": "video_id",
          "type": "uint256"
        },
        {
          "internalType": "string",
          "name": "comment_message",
          "type": "string"
        }
      ],
      "name": "addComment",
      "outputs": [],
      "stateMutability": "payable",
      "type": "function"
    },
    {
      "inputs": [
        {
          "components": [
            {
              "internalType": "string",
              "name": "_title",
              "type": "string"
            },
            {
              "internalType": "string",
              "name": "_description",
              "type": "string"
            },
            {
              "internalType": "string",
              "name": "_url",
              "type": "string"
            },
            {
              "internalType": "string",
              "name": "_thumb_url",
              "type": "string"
            },
            {
              "internalType": "uint256",
              "name": "_duration",
              "type": "uint256"
            },
            {
              "internalType": "string[]",
              "name": "_keywords",
              "type": "string[]"
            }
          ],
          "internalType": "struct Atomic.VideoAdd",
          "name": "_video_add",
          "type": "tuple"
        },
        {
          "internalType": "uint256[]",
          "name": "attributions",
          "type": "uint256[]"
        }
      ],
      "name": "addVideo",
      "outputs": [],
      "stateMutability": "nonpayable",
      "type": "function"
    },
    {
      "inputs": [
        {
          "internalType": "uint256",
          "name": "video_id",
          "type": "uint256"
        }
      ],
      "name": "adminDeleteVideo",
      "outputs": [],
      "stateMutability": "nonpayable",
      "type": "function"
    },
    {
      "inputs": [
        {
          "internalType": "uint256",
          "name": "video_id",
          "type": "uint256"
        }
      ],
      "name": "deleteVideo",
      "outputs": [],
      "stateMutability": "nonpayable",
      "type": "function"
    },
    {
      "inputs": [
        {
          "internalType": "address",
          "name": "addr",
          "type": "address"
        }
      ],
      "name": "getAddressNearID",
      "outputs": [
        {
          "internalType": "string",
          "name": "",
          "type": "string"
        }
      ],
      "stateMutability": "view",
      "type": "function"
    },
    {
      "inputs": [
        {
          "internalType": "uint256",
          "name": "video_id",
          "type": "uint256"
        }
      ],
      "name": "getAttributions",
      "outputs": [
        {
          "internalType": "uint256[]",
          "name": "",
          "type": "uint256[]"
        }
      ],
      "stateMutability": "view",
      "type": "function"
    },
    {
      "inputs": [
        {
          "internalType": "uint256",
          "name": "video_id",
          "type": "uint256"
        }
      ],
      "name": "getComments",
      "outputs": [
        {
          "components": [
            {
              "internalType": "address",
              "name": "poster",
              "type": "address"
            },
            {
              "internalType": "string",
              "name": "message",
              "type": "string"
            },
            {
              "internalType": "uint256",
              "name": "amount",
              "type": "uint256"
            },
            {
              "internalType": "uint256",
              "name": "timestamp",
              "type": "uint256"
            }
          ],
          "internalType": "struct Atomic.Comment[]",
          "name": "",
          "type": "tuple[]"
        }
      ],
      "stateMutability": "view",
      "type": "function"
    },
    {
      "inputs": [
        {
          "internalType": "uint256",
          "name": "size",
          "type": "uint256"
        }
      ],
      "name": "getLatestVideos",
      "outputs": [
        {
          "components": [
            {
              "components": [
                {
                  "internalType": "uint256",
                  "name": "id",
                  "type": "uint256"
                },
                {
                  "internalType": "string",
                  "name": "title",
                  "type": "string"
                },
                {
                  "internalType": "string",
                  "name": "description",
                  "type": "string"
                },
                {
                  "internalType": "string",
                  "name": "url",
                  "type": "string"
                },
                {
                  "internalType": "string",
                  "name": "thumb_url",
                  "type": "string"
                },
                {
                  "internalType": "string[]",
                  "name": "keywords",
                  "type": "string[]"
                },
                {
                  "internalType": "uint256",
                  "name": "duration",
                  "type": "uint256"
                },
                {
                  "internalType": "uint256",
                  "name": "timestamp",
                  "type": "uint256"
                }
              ],
              "internalType": "struct Atomic.Video",
              "name": "video",
              "type": "tuple"
            },
            {
              "internalType": "string",
              "name": "near_id",
              "type": "string"
            }
          ],
          "internalType": "struct Atomic.VideoWithNearID[]",
          "name": "",
          "type": "tuple[]"
        }
      ],
      "stateMutability": "view",
      "type": "function"
    },
    {
      "inputs": [],
      "name": "getOwner",
      "outputs": [
        {
          "internalType": "address",
          "name": "",
          "type": "address"
        }
      ],
      "stateMutability": "view",
      "type": "function"
    },
    {
      "inputs": [
        {
          "internalType": "uint256",
          "name": "video_id",
          "type": "uint256"
        }
      ],
      "name": "getVideo",
      "outputs": [
        {
          "components": [
            {
              "components": [
                {
                  "internalType": "uint256",
                  "name": "id",
                  "type": "uint256"
                },
                {
                  "internalType": "string",
                  "name": "title",
                  "type": "string"
                },
                {
                  "internalType": "string",
                  "name": "description",
                  "type": "string"
                },
                {
                  "internalType": "string",
                  "name": "url",
                  "type": "string"
                },
                {
                  "internalType": "string",
                  "name": "thumb_url",
                  "type": "string"
                },
                {
                  "internalType": "string[]",
                  "name": "keywords",
                  "type": "string[]"
                },
                {
                  "internalType": "uint256",
                  "name": "duration",
                  "type": "uint256"
                },
                {
                  "internalType": "uint256",
                  "name": "timestamp",
                  "type": "uint256"
                }
              ],
              "internalType": "struct Atomic.Video",
              "name": "video",
              "type": "tuple"
            },
            {
              "internalType": "string",
              "name": "near_id",
              "type": "string"
            }
          ],
          "internalType": "struct Atomic.VideoWithNearID",
          "name": "",
          "type": "tuple"
        }
      ],
      "stateMutability": "view",
      "type": "function"
    },
    {
      "inputs": [
        {
          "internalType": "string",
          "name": "_near_id",
          "type": "string"
        }
      ],
      "name": "getVideoByNearID",
      "outputs": [
        {
          "components": [
            {
              "components": [
                {
                  "internalType": "uint256",
                  "name": "id",
                  "type": "uint256"
                },
                {
                  "internalType": "string",
                  "name": "title",
                  "type": "string"
                },
                {
                  "internalType": "string",
                  "name": "description",
                  "type": "string"
                },
                {
                  "internalType": "string",
                  "name": "url",
                  "type": "string"
                },
                {
                  "internalType": "string",
                  "name": "thumb_url",
                  "type": "string"
                },
                {
                  "internalType": "string[]",
                  "name": "keywords",
                  "type": "string[]"
                },
                {
                  "internalType": "uint256",
                  "name": "duration",
                  "type": "uint256"
                },
                {
                  "internalType": "uint256",
                  "name": "timestamp",
                  "type": "uint256"
                }
              ],
              "internalType": "struct Atomic.Video",
              "name": "video",
              "type": "tuple"
            },
            {
              "internalType": "string",
              "name": "near_id",
              "type": "string"
            }
          ],
          "internalType": "struct Atomic.VideoWithNearID[]",
          "name": "",
          "type": "tuple[]"
        }
      ],
      "stateMutability": "view",
      "type": "function"
    },
    {
      "inputs": [
        {
          "internalType": "string[]",
          "name": "terms",
          "type": "string[]"
        }
      ],
      "name": "getVideosByTerm",
      "outputs": [
        {
          "components": [
            {
              "components": [
                {
                  "internalType": "uint256",
                  "name": "id",
                  "type": "uint256"
                },
                {
                  "internalType": "string",
                  "name": "title",
                  "type": "string"
                },
                {
                  "internalType": "string",
                  "name": "description",
                  "type": "string"
                },
                {
                  "internalType": "string",
                  "name": "url",
                  "type": "string"
                },
                {
                  "internalType": "string",
                  "name": "thumb_url",
                  "type": "string"
                },
                {
                  "internalType": "string[]",
                  "name": "keywords",
                  "type": "string[]"
                },
                {
                  "internalType": "uint256",
                  "name": "duration",
                  "type": "uint256"
                },
                {
                  "internalType": "uint256",
                  "name": "timestamp",
                  "type": "uint256"
                }
              ],
              "internalType": "struct Atomic.Video",
              "name": "video",
              "type": "tuple"
            },
            {
              "internalType": "string",
              "name": "near_id",
              "type": "string"
            }
          ],
          "internalType": "struct Atomic.VideoWithNearID[]",
          "name": "",
          "type": "tuple[]"
        }
      ],
      "stateMutability": "view",
      "type": "function"
    },
    {
      "inputs": [
        {
          "internalType": "string",
          "name": "_near_id",
          "type": "string"
        }
      ],
      "name": "setNearID",
      "outputs": [],
      "stateMutability": "nonpayable",
      "type": "function"
    }
  ],
  "bytecode": "0x608060405260016000556001805534801561001957600080fd5b50600280546001600160a01b031916331790556138e38061003b6000396000f3fe6080604052600436106100dd5760003560e01c80635eaecd121161007f5780638799bd74116100595780638799bd741461026e578063893d20e81461028e578063aa7e5683146102c3578063d4ab873e146102d657600080fd5b80635eaecd121461020e57806360c736cd1461022e578063704802751461024e57600080fd5b806323edf697116100bb57806323edf697146101675780632893eca2146101945780633e35019e146101c1578063413cf029146101ee57600080fd5b8063036c5712146100e2578063051cb30d14610104578063087f44fd1461013a575b600080fd5b3480156100ee57600080fd5b506101026100fd366004612d01565b6102f6565b005b34801561011057600080fd5b5061012461011f366004612da3565b6105ad565b6040516101319190612dbc565b60405180910390f35b34801561014657600080fd5b5061015a610155366004612e00565b610686565b6040516101319190612e8d565b34801561017357600080fd5b50610187610182366004612da3565b610735565b6040516101319190612ea0565b3480156101a057600080fd5b506101b46101af366004612da3565b6109cf565b60405161013191906130b4565b3480156101cd57600080fd5b506101e16101dc36600461321e565b610db4565b604051610131919061326f565b3480156101fa57600080fd5b50610102610209366004612da3565b611292565b34801561021a57600080fd5b506101e16102293660046132f1565b61144c565b34801561023a57600080fd5b5061010261024936600461336f565b6119e2565b34801561025a57600080fd5b50610102610269366004612e00565b611aed565b34801561027a57600080fd5b506101e1610289366004612da3565b611be6565b34801561029a57600080fd5b5060025460405173ffffffffffffffffffffffffffffffffffffffff9091168152602001610131565b6101026102d13660046133b1565b611ff8565b3480156102e257600080fd5b506101026102f1366004612da3565b612566565b6000805481806103058361342c565b90915550604080516101008101909152818152909150602081016103298680613464565b8080601f01602080910402602001604051908101604052809392919081815260200183838082843760009201919091525050509082525060209081019061037290870187613464565b8080601f0160208091040260200160405190810160405280939291908181526020018383808284376000920191909152505050908252506020016103b96040870187613464565b8080601f0160208091040260200160405190810160405280939291908181526020018383808284376000920191909152505050908252506020016104006060870187613464565b8080601f01602080910402602001604051908101604052809392919081815260200183838082843760009201919091525050509082525060200161044760a08701876134c9565b61045091613531565b8152608086013560208083019190915242604092830152600084815260088252919091208251815590820151600182019061048b90826135e1565b50604082015160028201906104a090826135e1565b50606082015160038201906104b590826135e1565b50608082015160048201906104ca90826135e1565b5060a082015180516104e6916005840191602090910190612be4565b5060c082015160068083019190915560e09092015160079182015560008381526020918252604080822080547fffffffffffffffffffffffff000000000000000000000000000000000000000016339081179091558252928252918220805460018101825590835291200181905561056a8161056560a08701876134c9565b612656565b6105a78184848080602002602001604051908101604052809392919081815260200183836020028082843760009201919091525061279592505050565b50505050565b60008181526007602052604090205460609073ffffffffffffffffffffffffffffffffffffffff166106265760405162461bcd60e51b815260206004820152601160248201527f566964656f206d7573742065786973742e00000000000000000000000000000060448201526064015b60405180910390fd5b6000828152600d60209081526040918290208054835181840281018401909452808452909183018282801561067a57602002820191906000526020600020905b815481526020019060010190808311610666575b50505050509050919050565b73ffffffffffffffffffffffffffffffffffffffff811660009081526003602052604090208054606091906106ba9061353e565b80601f01602080910402602001604051908101604052809291908181526020018280546106e69061353e565b801561067a5780601f106107085761010080835404028352916020019161067a565b820191906000526020600020905b8154815290600101906020018083116107165750939695505050505050565b60008181526007602052604090205460609073ffffffffffffffffffffffffffffffffffffffff166107a95760405162461bcd60e51b815260206004820152601160248201527f566964656f206d7573742065786973742e000000000000000000000000000000604482015260640161061d565b6000828152600b602052604081205467ffffffffffffffff8111156107d0576107d06130c7565b60405190808252806020026020018201604052801561084257816020015b61082f6040518060800160405280600073ffffffffffffffffffffffffffffffffffffffff1681526020016060815260200160008152602001600081525090565b8152602001906001900390816107ee5790505b50905060005b6000848152600b60205260409020548110156109c8576000848152600b602052604081208054600c92919084908110610883576108836136dd565b906000526020600020015481526020019081526020016000206040518060800160405290816000820160009054906101000a900473ffffffffffffffffffffffffffffffffffffffff1673ffffffffffffffffffffffffffffffffffffffff1673ffffffffffffffffffffffffffffffffffffffff16815260200160018201805461090d9061353e565b80601f01602080910402602001604051908101604052809291908181526020018280546109399061353e565b80156109865780601f1061095b57610100808354040283529160200191610986565b820191906000526020600020905b81548152906001019060200180831161096957829003601f168201915b50505050508152602001600282015481526020016003820154815250508282815181106109b5576109b56136dd565b6020908102919091010152600101610848565b5092915050565b6109d7612c3a565b60008281526007602052604090205473ffffffffffffffffffffffffffffffffffffffff16610a485760405162461bcd60e51b815260206004820152601160248201527f566964656f206d7573742065786973742e000000000000000000000000000000604482015260640161061d565b610dae600860008481526020019081526020016000206040518061010001604052908160008201548152602001600182018054610a849061353e565b80601f0160208091040260200160405190810160405280929190818152602001828054610ab09061353e565b8015610afd5780601f10610ad257610100808354040283529160200191610afd565b820191906000526020600020905b815481529060010190602001808311610ae057829003601f168201915b50505050508152602001600282018054610b169061353e565b80601f0160208091040260200160405190810160405280929190818152602001828054610b429061353e565b8015610b8f5780601f10610b6457610100808354040283529160200191610b8f565b820191906000526020600020905b815481529060010190602001808311610b7257829003601f168201915b50505050508152602001600382018054610ba89061353e565b80601f0160208091040260200160405190810160405280929190818152602001828054610bd49061353e565b8015610c215780601f10610bf657610100808354040283529160200191610c21565b820191906000526020600020905b815481529060010190602001808311610c0457829003601f168201915b50505050508152602001600482018054610c3a9061353e565b80601f0160208091040260200160405190810160405280929190818152602001828054610c669061353e565b8015610cb35780601f10610c8857610100808354040283529160200191610cb3565b820191906000526020600020905b815481529060010190602001808311610c9657829003601f168201915b5050505050815260200160058201805480602002602001604051908101604052809291908181526020016000905b82821015610d8d578382906000526020600020018054610d009061353e565b80601f0160208091040260200160405190810160405280929190818152602001828054610d2c9061353e565b8015610d795780601f10610d4e57610100808354040283529160200191610d79565b820191906000526020600020905b815481529060010190602001808311610d5c57829003601f168201915b505050505081526020019060010190610ce1565b505050508152602001600682015481526020016007820154815250506128b5565b92915050565b60606000805b8351811015610e10576009848281518110610dd757610dd76136dd565b6020026020010151604051610dec919061370c565b90815260405190819003602001902054610e069083613728565b9150600101610dba565b5060008167ffffffffffffffff811115610e2c57610e2c6130c7565b604051908082528060200260200182016040528015610e6557816020015b610e52612c3a565b815260200190600190039081610e4a5790505b5090506000805b85518110156112885760005b6009878381518110610e8c57610e8c6136dd565b6020026020010151604051610ea1919061370c565b9081526040519081900360200190205481101561127f5761124f6008600060098a8681518110610ed357610ed36136dd565b6020026020010151604051610ee8919061370c565b90815260200160405180910390208481548110610f0757610f076136dd565b906000526020600020015481526020019081526020016000206040518061010001604052908160008201548152602001600182018054610f469061353e565b80601f0160208091040260200160405190810160405280929190818152602001828054610f729061353e565b8015610fbf5780601f10610f9457610100808354040283529160200191610fbf565b820191906000526020600020905b815481529060010190602001808311610fa257829003601f168201915b50505050508152602001600282018054610fd89061353e565b80601f01602080910402602001604051908101604052809291908181526020018280546110049061353e565b80156110515780601f1061102657610100808354040283529160200191611051565b820191906000526020600020905b81548152906001019060200180831161103457829003601f168201915b5050505050815260200160038201805461106a9061353e565b80601f01602080910402602001604051908101604052809291908181526020018280546110969061353e565b80156110e35780601f106110b8576101008083540402835291602001916110e3565b820191906000526020600020905b8154815290600101906020018083116110c657829003601f168201915b505050505081526020016004820180546110fc9061353e565b80601f01602080910402602001604051908101604052809291908181526020018280546111289061353e565b80156111755780601f1061114a57610100808354040283529160200191611175565b820191906000526020600020905b81548152906001019060200180831161115857829003601f168201915b5050505050815260200160058201805480602002602001604051908101604052809291908181526020016000905b82821015610d8d5783829060005260206000200180546111c29061353e565b80601f01602080910402602001604051908101604052809291908181526020018280546111ee9061353e565b801561123b5780601f106112105761010080835404028352916020019161123b565b820191906000526020600020905b81548152906001019060200180831161121e57829003601f168201915b5050505050815260200190600101906111a3565b848461125a8161342c565b95508151811061126c5761126c6136dd565b6020908102919091010152600101610e78565b50600101610e6c565b5090949350505050565b6000805b6040517f61646d696e0000000000000000000000000000000000000000000000000000008152600f906005019081526040519081900360200190205481101561135d576040517f61646d696e0000000000000000000000000000000000000000000000000000008152600f9060050190815260200160405180910390208181548110611324576113246136dd565b60009182526020909120015473ffffffffffffffffffffffffffffffffffffffff163303611355576001915061135d565b600101611296565b5060025473ffffffffffffffffffffffffffffffffffffffff163303611381575060015b806113ce5760405162461bcd60e51b815260206004820152600d60248201527f4163636573732044656e69656400000000000000000000000000000000000000604482015260640161061d565b60008281526007602052604090205473ffffffffffffffffffffffffffffffffffffffff1661143f5760405162461bcd60e51b815260206004820152601160248201527f566964656f206d7573742065786973742e000000000000000000000000000000604482015260640161061d565b61144882612992565b5050565b60606000805b600484604051611462919061370c565b908152604051908190036020019020548110156114f2576006600060048660405161148d919061370c565b908152602001604051809103902083815481106114ac576114ac6136dd565b600091825260208083209091015473ffffffffffffffffffffffffffffffffffffffff1683528201929092526040019020546114e89083613728565b9150600101611452565b5060008167ffffffffffffffff81111561150e5761150e6130c7565b60405190808252806020026020018201604052801561154757816020015b611534612c3a565b81526020019060019003908161152c5790505b5090506000805b60048660405161155e919061370c565b908152604051908190036020019020548110156112885760005b6006600060048960405161158c919061370c565b908152602001604051809103902084815481106115ab576115ab6136dd565b600091825260208083209091015473ffffffffffffffffffffffffffffffffffffffff1683528201929092526040019020548110156119d9576119a9600860006006600060048c6040516115ff919061370c565b9081526020016040518091039020878154811061161e5761161e6136dd565b600091825260208083209091015473ffffffffffffffffffffffffffffffffffffffff1683528201929092526040019020805485908110611661576116616136dd565b9060005260206000200154815260200190815260200160002060405180610100016040529081600082015481526020016001820180546116a09061353e565b80601f01602080910402602001604051908101604052809291908181526020018280546116cc9061353e565b80156117195780601f106116ee57610100808354040283529160200191611719565b820191906000526020600020905b8154815290600101906020018083116116fc57829003601f168201915b505050505081526020016002820180546117329061353e565b80601f016020809104026020016040519081016040528092919081815260200182805461175e9061353e565b80156117ab5780601f10611780576101008083540402835291602001916117ab565b820191906000526020600020905b81548152906001019060200180831161178e57829003601f168201915b505050505081526020016003820180546117c49061353e565b80601f01602080910402602001604051908101604052809291908181526020018280546117f09061353e565b801561183d5780601f106118125761010080835404028352916020019161183d565b820191906000526020600020905b81548152906001019060200180831161182057829003601f168201915b505050505081526020016004820180546118569061353e565b80601f01602080910402602001604051908101604052809291908181526020018280546118829061353e565b80156118cf5780601f106118a4576101008083540402835291602001916118cf565b820191906000526020600020905b8154815290600101906020018083116118b257829003601f168201915b5050505050815260200160058201805480602002602001604051908101604052809291908181526020016000905b82821015610d8d57838290600052602060002001805461191c9061353e565b80601f01602080910402602001604051908101604052809291908181526020018280546119489061353e565b80156119955780601f1061196a57610100808354040283529160200191611995565b820191906000526020600020905b81548152906001019060200180831161197857829003601f168201915b5050505050815260200190600101906118fd565b84846119b48161342c565b9550815181106119c6576119c66136dd565b6020908102919091010152600101611578565b5060010161154e565b3360009081526003602052604090206119fc82848361373b565b5060058282604051611a0f929190613838565b9081526040805160209281900383019020336000908152925290205460ff166114485760048282604051611a44929190613838565b90815260405190819003602090810182208054600181810183556000928352929091200180547fffffffffffffffffffffffff0000000000000000000000000000000000000000163317905590600590611aa19085908590613838565b90815260408051602092819003830190203360009081529252902080547fffffffffffffffffffffffffffffffffffffffffffffffffffffffffffffff00169115159190911790555050565b60025473ffffffffffffffffffffffffffffffffffffffff163314611b545760405162461bcd60e51b815260206004820152600d60248201527f4163636573732044656e69656400000000000000000000000000000000000000604482015260640161061d565b6040517f61646d696e0000000000000000000000000000000000000000000000000000008152600f9060050190815260405160209181900382019020805460018101825560009182529190200180547fffffffffffffffffffffffff00000000000000000000000000000000000000001673ffffffffffffffffffffffffffffffffffffffff92909216919091179055565b60606000826001600054611bfa9190613848565b11611c13576001600054611c0e9190613848565b611c15565b825b67ffffffffffffffff811115611c2d57611c2d6130c7565b604051908082528060200260200182016040528015611c6657816020015b611c53612c3a565b815260200190600190039081611c4b5790505b50905060005b81518110156109c857611fd360086000600184600054611c8c9190613848565b611c969190613848565b81526020019081526020016000206040518061010001604052908160008201548152602001600182018054611cca9061353e565b80601f0160208091040260200160405190810160405280929190818152602001828054611cf69061353e565b8015611d435780601f10611d1857610100808354040283529160200191611d43565b820191906000526020600020905b815481529060010190602001808311611d2657829003601f168201915b50505050508152602001600282018054611d5c9061353e565b80601f0160208091040260200160405190810160405280929190818152602001828054611d889061353e565b8015611dd55780601f10611daa57610100808354040283529160200191611dd5565b820191906000526020600020905b815481529060010190602001808311611db857829003601f168201915b50505050508152602001600382018054611dee9061353e565b80601f0160208091040260200160405190810160405280929190818152602001828054611e1a9061353e565b8015611e675780601f10611e3c57610100808354040283529160200191611e67565b820191906000526020600020905b815481529060010190602001808311611e4a57829003601f168201915b50505050508152602001600482018054611e809061353e565b80601f0160208091040260200160405190810160405280929190818152602001828054611eac9061353e565b8015611ef95780601f10611ece57610100808354040283529160200191611ef9565b820191906000526020600020905b815481529060010190602001808311611edc57829003601f168201915b5050505050815260200160058201805480602002602001604051908101604052809291908181526020016000905b82821015610d8d578382906000526020600020018054611f469061353e565b80601f0160208091040260200160405190810160405280929190818152602001828054611f729061353e565b8015611fbf5780601f10611f9457610100808354040283529160200191611fbf565b820191906000526020600020905b815481529060010190602001808311611fa257829003601f168201915b505050505081526020019060010190611f27565b828281518110611fe557611fe56136dd565b6020908102919091010152600101611c6c565b60008381526007602052604090205473ffffffffffffffffffffffffffffffffffffffff166120695760405162461bcd60e51b815260206004820152601160248201527f566964656f206d7573742065786973742e000000000000000000000000000000604482015260640161061d565b3415612441576000838152600760205260409020543373ffffffffffffffffffffffffffffffffffffffff9091160361210a5760405162461bcd60e51b815260206004820152602660248201527f596f752063616e6e6f7420737570657263686174206f6e20796f7572206f776e60448201527f20766964656f0000000000000000000000000000000000000000000000000000606482015260840161061d565b6000600a61211934600961385b565b6121239190613872565b60025490915060009073ffffffffffffffffffffffffffffffffffffffff1661214c8334613848565b604051600081818185875af1925050503d8060008114612188576040519150601f19603f3d011682016040523d82523d6000602084013e61218d565b606091505b50509050806121de5760405162461bcd60e51b815260206004820152601d60248201527f4661696c656420746f2073656e6420457468657220746f206f776e6572000000604482015260640161061d565b6000858152600d60205260408120546121f8906001613728565b905060006122068285613872565b905060005b6000888152600d602052604090205481101561233e576000888152600d60205260408120805483908110612241576122416136dd565b6000918252602080832091909101548083526007909152604080832054905191935073ffffffffffffffffffffffffffffffffffffffff169190829086908381818185875af1925050503d80600081146122b7576040519150601f19603f3d011682016040523d82523d6000602084013e6122bc565b606091505b50509050806123335760405162461bcd60e51b815260206004820152602160248201527f4661696c656420746f2073656e6420457468657220746f20612063726561746f60448201527f7200000000000000000000000000000000000000000000000000000000000000606482015260840161061d565b50505060010161220b565b5060008781526007602052604081205473ffffffffffffffffffffffffffffffffffffffff1661236f600185613848565b612379908461385b565b6123839087613848565b604051600081818185875af1925050503d80600081146123bf576040519150601f19603f3d011682016040523d82523d6000602084013e6123c4565b606091505b505090508061243b5760405162461bcd60e51b815260206004820152602360248201527f4661696c656420746f2073656e6420457468657220746f20746865206372656160448201527f746f720000000000000000000000000000000000000000000000000000000000606482015260840161061d565b50505050505b60018054600091826124528361342c565b91905055905060405180608001604052803373ffffffffffffffffffffffffffffffffffffffff16815260200184848080601f016020809104026020016040519081016040528093929190818152602001838380828437600092018290525093855250503460208085019190915242604094850152858352600c815292909120835181547fffffffffffffffffffffffff00000000000000000000000000000000000000001673ffffffffffffffffffffffffffffffffffffffff9091161781559183015160018301915061252790826135e1565b5060408281015160028301556060909201516003909101556000948552600b602090815290852080546001810182559086529420909301929092555050565b60008181526007602052604090205473ffffffffffffffffffffffffffffffffffffffff166125d75760405162461bcd60e51b815260206004820152601160248201527f566964656f206d7573742065786973742e000000000000000000000000000000604482015260640161061d565b60008181526007602052604090205473ffffffffffffffffffffffffffffffffffffffff16331461264a5760405162461bcd60e51b815260206004820152601960248201527f596f7520646f206e6f74206f776e2074686520766964656f2e00000000000000604482015260640161061d565b61265381612992565b50565b60005b818110156105a757600a838383818110612675576126756136dd565b90506020028101906126879190613464565b604051612695929190613838565b90815260408051602092819003830190206000878152925290205460ff1661278d5760098383838181106126cb576126cb6136dd565b90506020028101906126dd9190613464565b6040516126eb929190613838565b9081526040516020918190038201902080546001808201835560009283529290912001859055600a848484818110612725576127256136dd565b90506020028101906127379190613464565b604051612745929190613838565b908152604080516020928190038301902060008881529252902080547fffffffffffffffffffffffffffffffffffffffffffffffffffffffffffffff00169115159190911790555b600101612659565b60008281526007602052604090205473ffffffffffffffffffffffffffffffffffffffff1633146128085760405162461bcd60e51b815260206004820152601960248201527f596f7520646f206e6f74206f776e2074686520766964656f2e00000000000000604482015260640161061d565b60008281526007602052604090205473ffffffffffffffffffffffffffffffffffffffff166128795760405162461bcd60e51b815260206004820152601160248201527f566964656f206d7573742065786973742e000000000000000000000000000000604482015260640161061d565b60005b81518110156128b0576128a88383838151811061289b5761289b6136dd565b6020026020010151612b0b565b60010161287c565b505050565b6128bd612c3a565b60408051808201825283815283516000908152600760209081528382205473ffffffffffffffffffffffffffffffffffffffff168252600381529290208054919283019161290a9061353e565b80601f01602080910402602001604051908101604052809291908181526020018280546129369061353e565b80156129835780601f1061295857610100808354040283529160200191612983565b820191906000526020600020905b81548152906001019060200180831161296657829003601f168201915b50505050508152509050919050565b600081815260076020908152604080832080547fffffffffffffffffffffffff000000000000000000000000000000000000000016905580516101008101825284815281518083018352600f81527f5b44656c6574656420566964656f5d00000000000000000000000000000000008185015281840152815180840183528481528183015281518084018352848152606082015281518084018352848152608082015281518481529283019091529160a083019190612a61565b6060815260200190600190039081612a4c5790505b50815260006020808301829052426040938401528482526008815291902082518155908201516001820190612a9690826135e1565b5060408201516002820190612aab90826135e1565b5060608201516003820190612ac090826135e1565b5060808201516004820190612ad590826135e1565b5060a08201518051612af1916005840191602090910190612be4565b5060c0820151600682015560e09091015160079091015550565b6000828152600e6020908152604080832084845290915290205460ff16612b8d576000828152600d6020908152604080832080546001818101835591855283852001859055858452600e835281842085855290925290912080547fffffffffffffffffffffffffffffffffffffffffffffffffffffffffffffff001690911790555b60005b6000828152600d60205260409020548110156128b0576000828152600d602052604090208054612bdc91859184908110612bcc57612bcc6136dd565b9060005260206000200154612b0b565b600101612b90565b828054828255906000526020600020908101928215612c2a579160200282015b82811115612c2a5782518290612c1a90826135e1565b5091602001919060010190612c04565b50612c36929150612c9a565b5090565b6040518060400160405280612c8d60405180610100016040528060008152602001606081526020016060815260200160608152602001606081526020016060815260200160008152602001600081525090565b8152602001606081525090565b80821115612c36576000612cae8282612cb7565b50600101612c9a565b508054612cc39061353e565b6000825580601f10612cd3575050565b601f01602090049060005260206000209081019061265391905b80821115612c365760008155600101612ced565b600080600060408486031215612d1657600080fd5b833567ffffffffffffffff80821115612d2e57600080fd5b9085019060c08288031215612d4257600080fd5b90935060208501359080821115612d5857600080fd5b818601915086601f830112612d6c57600080fd5b813581811115612d7b57600080fd5b8760208260051b8501011115612d9057600080fd5b6020830194508093505050509250925092565b600060208284031215612db557600080fd5b5035919050565b6020808252825182820181905260009190848201906040850190845b81811015612df457835183529284019291840191600101612dd8565b50909695505050505050565b600060208284031215612e1257600080fd5b813573ffffffffffffffffffffffffffffffffffffffff81168114612e3657600080fd5b9392505050565b60005b83811015612e58578181015183820152602001612e40565b50506000910152565b60008151808452612e79816020860160208601612e3d565b601f01601f19169290920160200192915050565b602081526000612e366020830184612e61565b600060208083018184528085518083526040925060408601915060408160051b87010184880160005b83811015612f53577fffffffffffffffffffffffffffffffffffffffffffffffffffffffffffffffc08984030185528151608073ffffffffffffffffffffffffffffffffffffffff825116855288820151818a870152612f2b82870182612e61565b838a0151878b0152606093840151939096019290925250509386019390860190600101612ec9565b509098975050505050505050565b60008282518085526020808601955060208260051b8401016020860160005b84811015612fae57601f19868403018952612f9c838351612e61565b98840198925090830190600101612f80565b5090979650505050505050565b6000815160408452805160408501526020810151610100806060870152612fe6610140870183612e61565b915060408301517fffffffffffffffffffffffffffffffffffffffffffffffffffffffffffffffc0808885030160808901526130228483612e61565b935060608501519150808885030160a089015261303f8483612e61565b935060808501519150808885030160c089015261305c8483612e61565b935060a08501519150808885030160e08901525061307a8382612f61565b92505060c0830151818701525060e08201516101208601526020840151915084810360208601526130ab8183612e61565b95945050505050565b602081526000612e366020830184612fbb565b7f4e487b7100000000000000000000000000000000000000000000000000000000600052604160045260246000fd5b604051601f8201601f1916810167ffffffffffffffff8111828210171561311f5761311f6130c7565b604052919050565b600082601f83011261313857600080fd5b813567ffffffffffffffff811115613152576131526130c7565b6131656020601f19601f840116016130f6565b81815284602083860101111561317a57600080fd5b816020850160208301376000918101602001919091529392505050565b600067ffffffffffffffff808411156131b2576131b26130c7565b8360051b60206131c4602083016130f6565b86815293509084019060208401878311156131de57600080fd5b855b83811015613212578035858111156131f85760008081fd5b6132048a828a01613127565b8352509082019082016131e0565b50505050509392505050565b60006020828403121561323057600080fd5b813567ffffffffffffffff81111561324757600080fd5b8201601f8101841361325857600080fd5b61326784823560208401613197565b949350505050565b600060208083016020845280855180835260408601915060408160051b87010192506020870160005b828110156132e4577fffffffffffffffffffffffffffffffffffffffffffffffffffffffffffffffc08886030184526132d2858351612fbb565b94509285019290850190600101613298565b5092979650505050505050565b60006020828403121561330357600080fd5b813567ffffffffffffffff81111561331a57600080fd5b61326784828501613127565b60008083601f84011261333857600080fd5b50813567ffffffffffffffff81111561335057600080fd5b60208301915083602082850101111561336857600080fd5b9250929050565b6000806020838503121561338257600080fd5b823567ffffffffffffffff81111561339957600080fd5b6133a585828601613326565b90969095509350505050565b6000806000604084860312156133c657600080fd5b83359250602084013567ffffffffffffffff8111156133e457600080fd5b6133f086828701613326565b9497909650939450505050565b7f4e487b7100000000000000000000000000000000000000000000000000000000600052601160045260246000fd5b60007fffffffffffffffffffffffffffffffffffffffffffffffffffffffffffffffff820361345d5761345d6133fd565b5060010190565b60008083357fffffffffffffffffffffffffffffffffffffffffffffffffffffffffffffffe184360301811261349957600080fd5b83018035915067ffffffffffffffff8211156134b457600080fd5b60200191503681900382131561336857600080fd5b60008083357fffffffffffffffffffffffffffffffffffffffffffffffffffffffffffffffe18436030181126134fe57600080fd5b83018035915067ffffffffffffffff82111561351957600080fd5b6020019150600581901b360382131561336857600080fd5b6000612e36368484613197565b600181811c9082168061355257607f821691505b60208210810361358b577f4e487b7100000000000000000000000000000000000000000000000000000000600052602260045260246000fd5b50919050565b601f8211156128b0576000816000526020600020601f850160051c810160208610156135ba5750805b601f850160051c820191505b818110156135d9578281556001016135c6565b505050505050565b815167ffffffffffffffff8111156135fb576135fb6130c7565b61360f81613609845461353e565b84613591565b602080601f831160018114613662576000841561362c5750858301515b7fffffffffffffffffffffffffffffffffffffffffffffffffffffffffffffffff600386901b1c1916600185901b1785556135d9565b600085815260208120601f198616915b8281101561369157888601518255948401946001909101908401613672565b50858210156136cd57878501517fffffffffffffffffffffffffffffffffffffffffffffffffffffffffffffffff600388901b60f8161c191681555b5050505050600190811b01905550565b7f4e487b7100000000000000000000000000000000000000000000000000000000600052603260045260246000fd5b6000825161371e818460208701612e3d565b9190910192915050565b80820180821115610dae57610dae6133fd565b67ffffffffffffffff831115613753576137536130c7565b61376783613761835461353e565b83613591565b6000601f8411600181146137b957600085156137835750838201355b7fffffffffffffffffffffffffffffffffffffffffffffffffffffffffffffffff600387901b1c1916600186901b178355613831565b600083815260209020601f19861690835b828110156137ea57868501358255602094850194600190920191016137ca565b5086821015613825577fffffffffffffffffffffffffffffffffffffffffffffffffffffffffffffffff60f88860031b161c19848701351681555b505060018560011b0183555b5050505050565b8183823760009101908152919050565b81810381811115610dae57610dae6133fd565b8082028115828204841417610dae57610dae6133fd565b6000826138a8577f4e487b7100000000000000000000000000000000000000000000000000000000600052601260045260246000fd5b50049056fea26469706673582212208c7ac3f6cf115d3fa5f7926bf90876cbcafe160f17f808586b20b3236969f0ec64736f6c63430008160033",
  "linkReferences": {},
  "deployedLinkReferences": {}
}