{
  "_format": "hh-sol-artifact-1",
  "contractName": "Atomic",
  "sourceName": "contracts/Atomic.sol",
  "abi": [
    {
      "inputs": [],
      "stateMutability": "nonpayable",
      "type": "constructor"
    },
    {
      "inputs": [
        {
          "internalType": "address",
          "name": "account",
          "type": "address"
        }
      ],
      "name": "addAdmin",
      "outputs": [],
      "stateMutability": "nonpayable",
      "type": "function"
    },
    {
      "inputs": [
        {
          "internalType": "uint256",
          "name": "video_id",
          "type": "uint256"
        },
        {
          "internalType": "string",
          "name": "comment_message",
          "type": "string"
        }
      ],
      "name": "addComment",
      "outputs": [],
      "stateMutability": "payable",
      "type": "function"
    },
    {
      "inputs": [
        {
          "internalType": "string",
          "name": "_title",
          "type": "string"
        },
        {
          "internalType": "string",
          "name": "_description",
          "type": "string"
        },
        {
          "internalType": "string",
          "name": "_url",
          "type": "string"
        },
        {
          "internalType": "string",
          "name": "_thumb_url",
          "type": "string"
        },
        {
          "internalType": "uint256",
          "name": "_duration",
          "type": "uint256"
        },
        {
          "internalType": "string[]",
          "name": "_keywords",
          "type": "string[]"
        }
      ],
      "name": "addVideo",
      "outputs": [],
      "stateMutability": "nonpayable",
      "type": "function"
    },
    {
      "inputs": [
        {
          "internalType": "uint256",
          "name": "video_id",
          "type": "uint256"
        }
      ],
      "name": "getAttributions",
      "outputs": [
        {
          "internalType": "uint256[]",
          "name": "",
          "type": "uint256[]"
        }
      ],
      "stateMutability": "view",
      "type": "function"
    },
    {
      "inputs": [
        {
          "internalType": "uint256",
          "name": "video_id",
          "type": "uint256"
        }
      ],
      "name": "getComments",
      "outputs": [
        {
          "components": [
            {
              "internalType": "address",
              "name": "poster",
              "type": "address"
            },
            {
              "internalType": "string",
              "name": "message",
              "type": "string"
            },
            {
              "internalType": "uint256",
              "name": "amount",
              "type": "uint256"
            },
            {
              "internalType": "uint256",
              "name": "timestamp",
              "type": "uint256"
            }
          ],
          "internalType": "struct Atomic.Comment[]",
          "name": "",
          "type": "tuple[]"
        }
      ],
      "stateMutability": "view",
      "type": "function"
    },
    {
      "inputs": [
        {
          "internalType": "uint256",
          "name": "size",
          "type": "uint256"
        }
      ],
      "name": "getLatestVideos",
      "outputs": [
        {
          "components": [
            {
              "internalType": "uint256",
              "name": "id",
              "type": "uint256"
            },
            {
              "internalType": "string",
              "name": "title",
              "type": "string"
            },
            {
              "internalType": "string",
              "name": "description",
              "type": "string"
            },
            {
              "internalType": "string",
              "name": "url",
              "type": "string"
            },
            {
              "internalType": "string",
              "name": "thumb_url",
              "type": "string"
            },
            {
              "internalType": "string[]",
              "name": "keywords",
              "type": "string[]"
            },
            {
              "internalType": "uint256",
              "name": "duration",
              "type": "uint256"
            },
            {
              "internalType": "uint256",
              "name": "timestamp",
              "type": "uint256"
            }
          ],
          "internalType": "struct Atomic.Video[]",
          "name": "",
          "type": "tuple[]"
        }
      ],
      "stateMutability": "view",
      "type": "function"
    },
    {
      "inputs": [
        {
          "internalType": "string",
          "name": "_near_id",
          "type": "string"
        }
      ],
      "name": "getVideoByNearID",
      "outputs": [
        {
          "components": [
            {
              "internalType": "uint256",
              "name": "id",
              "type": "uint256"
            },
            {
              "internalType": "string",
              "name": "title",
              "type": "string"
            },
            {
              "internalType": "string",
              "name": "description",
              "type": "string"
            },
            {
              "internalType": "string",
              "name": "url",
              "type": "string"
            },
            {
              "internalType": "string",
              "name": "thumb_url",
              "type": "string"
            },
            {
              "internalType": "string[]",
              "name": "keywords",
              "type": "string[]"
            },
            {
              "internalType": "uint256",
              "name": "duration",
              "type": "uint256"
            },
            {
              "internalType": "uint256",
              "name": "timestamp",
              "type": "uint256"
            }
          ],
          "internalType": "struct Atomic.Video[]",
          "name": "",
          "type": "tuple[]"
        }
      ],
      "stateMutability": "view",
      "type": "function"
    },
    {
      "inputs": [
        {
          "internalType": "uint256",
          "name": "video_id",
          "type": "uint256"
        },
        {
          "internalType": "uint256[]",
          "name": "attributions",
          "type": "uint256[]"
        }
      ],
      "name": "setAttributions",
      "outputs": [],
      "stateMutability": "nonpayable",
      "type": "function"
    },
    {
      "inputs": [
        {
          "internalType": "string",
          "name": "_near_id",
          "type": "string"
        }
      ],
      "name": "setNearID",
      "outputs": [],
      "stateMutability": "nonpayable",
      "type": "function"
    }
  ],
  "bytecode": "0x608060405260018055600160025534801561001957600080fd5b50600080546001600160a01b0319163317905561200e8061003b6000396000f3fe6080604052600436106100965760003560e01c80635eaecd1211610069578063704802751161004e578063704802751461018e5780638799bd74146101ae578063aa7e5683146101ce57600080fd5b80635eaecd121461014157806360c736cd1461016e57600080fd5b8063051cb30d1461009b578063210e07df146100d257806323edf697146100f457806338abafa014610121575b600080fd5b3480156100a757600080fd5b506100bc6100b63660046117aa565b50606090565b6040516100c991906117c3565b60405180910390f35b3480156100de57600080fd5b506100f26100ed366004611972565b6101e1565b005b34801561010057600080fd5b5061011461010f3660046117aa565b61031e565b6040516100c99190611a9c565b34801561012d57600080fd5b506100f261013c366004611b32565b610514565b34801561014d57600080fd5b5061016161015c366004611bcf565b610607565b6040516100c99190611c66565b34801561017a57600080fd5b506100f2610189366004611bcf565b610bda565b34801561019a57600080fd5b506100f26101a9366004611d51565b610cb5565b3480156101ba57600080fd5b506101616101c93660046117aa565b610d89565b6100f26101dc366004611d81565b6111dc565b60018054600091826101f283611dde565b90915550604080516101008101825282815260208082018b81528284018b9052606083018a90526080830189905260a0830187905260c083018890524260e08401526000858152600890925292902081518155915192935091600182019061025a9082611e81565b506040820151600282019061026f9082611e81565b50606082015160038201906102849082611e81565b50608082015160048201906102999082611e81565b5060a082015180516102b59160058401916020909101906116a1565b5060c082015160068083019190915560e090920151600791820155600083815260209182526040808220805473ffffffffffffffffffffffffffffffffffffffff1916339081179091558252928252918220805460018101825590835291200155505050505050565b6000818152600960205260408120546060919067ffffffffffffffff81111561034957610349611807565b6040519080825280602002602001820160405280156103ae57816020015b61039b604051806080016040528060006001600160a01b031681526020016060815260200160008152602001600081525090565b8152602001906001900390816103675790505b50905060005b60008481526009602052604090205481101561050d5760008481526009602052604081208054600a929190849081106103ef576103ef611f41565b906000526020600020015481526020019081526020016000206040518060800160405290816000820160009054906101000a90046001600160a01b03166001600160a01b03166001600160a01b0316815260200160018201805461045290611df7565b80601f016020809104026020016040519081016040528092919081815260200182805461047e90611df7565b80156104cb5780601f106104a0576101008083540402835291602001916104cb565b820191906000526020600020905b8154815290600101906020018083116104ae57829003601f168201915b50505050508152602001600282015481526020016003820154815250508282815181106104fa576104fa611f41565b60209081029190910101526001016103b4565b5092915050565b6000828152600760205260409020546001600160a01b0316331461057f5760405162461bcd60e51b815260206004820152601960248201527f596f7520646f206e6f74206f776e2074686520766964656f2e0000000000000060448201526064015b60405180910390fd5b6000828152600760205260409020546001600160a01b03166105e35760405162461bcd60e51b815260206004820152601160248201527f566964656f206d7573742065786973742e0000000000000000000000000000006044820152606401610576565b6000828152600b602090815260409091208251610602928401906116f7565b505050565b60606000805b60048460405161061d9190611f57565b908152604051908190036020019020548110156106a057600660006004866040516106489190611f57565b9081526020016040518091039020838154811061066757610667611f41565b60009182526020808320909101546001600160a01b031683528201929092526040019020546106969083611f73565b915060010161060d565b5060008167ffffffffffffffff8111156106bc576106bc611807565b60405190808252806020026020018201604052801561073557816020015b61072260405180610100016040528060008152602001606081526020016060815260200160608152602001606081526020016060815260200160008152602001600081525090565b8152602001906001900390816106da5790505b5090506000805b60048660405161074c9190611f57565b90815260405190819003602001902054811015610bd05760005b6006600060048960405161077a9190611f57565b9081526020016040518091039020848154811061079957610799611f41565b60009182526020808320909101546001600160a01b03168352820192909252604001902054811015610bc757600860006006600060048b6040516107dd9190611f57565b908152602001604051809103902086815481106107fc576107fc611f41565b60009182526020808320909101546001600160a01b03168352820192909252604001902080548490811061083257610832611f41565b90600052602060002001548152602001908152602001600020604051806101000160405290816000820154815260200160018201805461087190611df7565b80601f016020809104026020016040519081016040528092919081815260200182805461089d90611df7565b80156108ea5780601f106108bf576101008083540402835291602001916108ea565b820191906000526020600020905b8154815290600101906020018083116108cd57829003601f168201915b5050505050815260200160028201805461090390611df7565b80601f016020809104026020016040519081016040528092919081815260200182805461092f90611df7565b801561097c5780601f106109515761010080835404028352916020019161097c565b820191906000526020600020905b81548152906001019060200180831161095f57829003601f168201915b5050505050815260200160038201805461099590611df7565b80601f01602080910402602001604051908101604052809291908181526020018280546109c190611df7565b8015610a0e5780601f106109e357610100808354040283529160200191610a0e565b820191906000526020600020905b8154815290600101906020018083116109f157829003601f168201915b50505050508152602001600482018054610a2790611df7565b80601f0160208091040260200160405190810160405280929190818152602001828054610a5390611df7565b8015610aa05780601f10610a7557610100808354040283529160200191610aa0565b820191906000526020600020905b815481529060010190602001808311610a8357829003601f168201915b5050505050815260200160058201805480602002602001604051908101604052809291908181526020016000905b82821015610b7a578382906000526020600020018054610aed90611df7565b80601f0160208091040260200160405190810160405280929190818152602001828054610b1990611df7565b8015610b665780601f10610b3b57610100808354040283529160200191610b66565b820191906000526020600020905b815481529060010190602001808311610b4957829003601f168201915b505050505081526020019060010190610ace565b50505050815260200160068201548152602001600782015481525050848480610ba290611dde565b955081518110610bb457610bb4611f41565b6020908102919091010152600101610766565b5060010161073c565b5090949350505050565b336000908152600360205260409020610bf38282611e81565b50600581604051610c049190611f57565b9081526040805160209281900383019020336000908152925290205460ff16610cb257600481604051610c379190611f57565b908152604051908190036020908101822080546001818101835560009283529290912001805473ffffffffffffffffffffffffffffffffffffffff19163317905590600590610c87908490611f57565b908152604080516020928190038301902033600090815292529020805460ff19169115159190911790555b50565b6000546001600160a01b03163314610d0f5760405162461bcd60e51b815260206004820152600d60248201527f4163636573732044656e696564000000000000000000000000000000000000006044820152606401610576565b6040517f61646d696e0000000000000000000000000000000000000000000000000000008152600c90600501908152604051602091819003820190208054600181018255600091825291902001805473ffffffffffffffffffffffffffffffffffffffff19166001600160a01b0392909216919091179055565b606060008260015411610d9e57600154610da0565b825b67ffffffffffffffff811115610db857610db8611807565b604051908082528060200260200182016040528015610e3157816020015b610e1e60405180610100016040528060008152602001606081526020016060815260200160608152602001606081526020016060815260200160008152602001600081525090565b815260200190600190039081610dd65790505b50905060005b815181101561050d5760086000600183600154610e549190611f8c565b610e5e9190611f8c565b81526020019081526020016000206040518061010001604052908160008201548152602001600182018054610e9290611df7565b80601f0160208091040260200160405190810160405280929190818152602001828054610ebe90611df7565b8015610f0b5780601f10610ee057610100808354040283529160200191610f0b565b820191906000526020600020905b815481529060010190602001808311610eee57829003601f168201915b50505050508152602001600282018054610f2490611df7565b80601f0160208091040260200160405190810160405280929190818152602001828054610f5090611df7565b8015610f9d5780601f10610f7257610100808354040283529160200191610f9d565b820191906000526020600020905b815481529060010190602001808311610f8057829003601f168201915b50505050508152602001600382018054610fb690611df7565b80601f0160208091040260200160405190810160405280929190818152602001828054610fe290611df7565b801561102f5780601f106110045761010080835404028352916020019161102f565b820191906000526020600020905b81548152906001019060200180831161101257829003601f168201915b5050505050815260200160048201805461104890611df7565b80601f016020809104026020016040519081016040528092919081815260200182805461107490611df7565b80156110c15780601f10611096576101008083540402835291602001916110c1565b820191906000526020600020905b8154815290600101906020018083116110a457829003601f168201915b5050505050815260200160058201805480602002602001604051908101604052809291908181526020016000905b8282101561119b57838290600052602060002001805461110e90611df7565b80601f016020809104026020016040519081016040528092919081815260200182805461113a90611df7565b80156111875780601f1061115c57610100808354040283529160200191611187565b820191906000526020600020905b81548152906001019060200180831161116a57829003601f168201915b5050505050815260200190600101906110ef565b505050508152602001600682015481526020016007820154815250508282815181106111c9576111c9611f41565b6020908102919091010152600101610e37565b6000828152600760205260409020546001600160a01b03166112405760405162461bcd60e51b815260206004820152601160248201527f566964656f206d7573742065786973742e0000000000000000000000000000006044820152606401610576565b34156115e357600082815260076020526040902054336001600160a01b03909116036112d45760405162461bcd60e51b815260206004820152602660248201527f596f752063616e6e6f7420737570657263686174206f6e20796f7572206f776e60448201527f20766964656f00000000000000000000000000000000000000000000000000006064820152608401610576565b6000600a6112e3346009611f9f565b6112ed9190611fb6565b60008054919250906001600160a01b03166113088334611f8c565b604051600081818185875af1925050503d8060008114611344576040519150601f19603f3d011682016040523d82523d6000602084013e611349565b606091505b505090508061139a5760405162461bcd60e51b815260206004820152601d60248201527f4661696c656420746f2073656e6420457468657220746f206f776e65720000006044820152606401610576565b6000848152600b60205260408120546113b4906001611f73565b905060006113c28285611fb6565b905060005b6000878152600b60205260409020548110156114ed576000878152600b602052604081208054839081106113fd576113fd611f41565b600091825260208083209190910154808352600790915260408083205490519193506001600160a01b03169190829086908381818185875af1925050503d8060008114611466576040519150601f19603f3d011682016040523d82523d6000602084013e61146b565b606091505b50509050806114e25760405162461bcd60e51b815260206004820152602160248201527f4661696c656420746f2073656e6420457468657220746f20612063726561746f60448201527f72000000000000000000000000000000000000000000000000000000000000006064820152608401610576565b5050506001016113c7565b506000868152600760205260408120546001600160a01b0316611511600185611f8c565b61151b9084611f9f565b6115259087611f8c565b604051600081818185875af1925050503d8060008114611561576040519150601f19603f3d011682016040523d82523d6000602084013e611566565b606091505b50509050806115dd5760405162461bcd60e51b815260206004820152602360248201527f4661696c656420746f2073656e6420457468657220746f20746865206372656160448201527f746f7200000000000000000000000000000000000000000000000000000000006064820152608401610576565b50505050505b60028054600091826115f483611dde565b9091555060408051608081018252338152602080820186815234838501524260608401526000858152600a9092529290208151815473ffffffffffffffffffffffffffffffffffffffff19166001600160a01b0390911617815591519293509160018201906116639082611e81565b506040828101516002830155606090920151600390910155600093845260096020908152908420805460018101825590855293209092019190915550565b8280548282559060005260206000209081019282156116e7579160200282015b828111156116e757825182906116d79082611e81565b50916020019190600101906116c1565b506116f392915061173e565b5090565b828054828255906000526020600020908101928215611732579160200282015b82811115611732578251825591602001919060010190611717565b506116f392915061175b565b808211156116f35760006117528282611770565b5060010161173e565b5b808211156116f3576000815560010161175c565b50805461177c90611df7565b6000825580601f1061178c575050565b601f016020900490600052602060002090810190610cb2919061175b565b6000602082840312156117bc57600080fd5b5035919050565b6020808252825182820181905260009190848201906040850190845b818110156117fb578351835292840192918401916001016117df565b50909695505050505050565b634e487b7160e01b600052604160045260246000fd5b604051601f8201601f1916810167ffffffffffffffff8111828210171561184657611846611807565b604052919050565b600082601f83011261185f57600080fd5b813567ffffffffffffffff81111561187957611879611807565b61188c601f8201601f191660200161181d565b8181528460208386010111156118a157600080fd5b816020850160208301376000918101602001919091529392505050565b600067ffffffffffffffff8211156118d8576118d8611807565b5060051b60200190565b600082601f8301126118f357600080fd5b81356020611908611903836118be565b61181d565b82815260059290921b8401810191818101908684111561192757600080fd5b8286015b8481101561196757803567ffffffffffffffff81111561194b5760008081fd5b6119598986838b010161184e565b84525091830191830161192b565b509695505050505050565b60008060008060008060c0878903121561198b57600080fd5b863567ffffffffffffffff808211156119a357600080fd5b6119af8a838b0161184e565b975060208901359150808211156119c557600080fd5b6119d18a838b0161184e565b965060408901359150808211156119e757600080fd5b6119f38a838b0161184e565b95506060890135915080821115611a0957600080fd5b611a158a838b0161184e565b94506080890135935060a0890135915080821115611a3257600080fd5b50611a3f89828a016118e2565b9150509295509295509295565b60005b83811015611a67578181015183820152602001611a4f565b50506000910152565b60008151808452611a88816020860160208601611a4c565b601f01601f19169290920160200192915050565b600060208083018184528085518083526040925060408601915060408160051b87010184880160005b83811015611b2457603f19898403018552815160806001600160a01b03825116855288820151818a870152611afc82870182611a70565b838a0151878b0152606093840151939096019290925250509386019390860190600101611ac5565b509098975050505050505050565b60008060408385031215611b4557600080fd5b8235915060208084013567ffffffffffffffff811115611b6457600080fd5b8401601f81018613611b7557600080fd5b8035611b83611903826118be565b81815260059190911b82018301908381019088831115611ba257600080fd5b928401925b82841015611bc057833582529284019290840190611ba7565b80955050505050509250929050565b600060208284031215611be157600080fd5b813567ffffffffffffffff811115611bf857600080fd5b611c048482850161184e565b949350505050565b60008282518085526020808601955060208260051b8401016020860160005b84811015611c5957601f19868403018952611c47838351611a70565b98840198925090830190600101611c2b565b5090979650505050505050565b600060208083018184528085518083526040925060408601915060408160051b87010184880160005b83811015611b2457603f1989840301855281516101008151855288820151818a870152611cbe82870182611a70565b9150508782015185820389870152611cd68282611a70565b91505060608083015186830382880152611cf08382611a70565b9250505060808083015186830382880152611d0b8382611a70565b9250505060a08083015186830382880152611d268382611c0c565b60c0858101519089015260e09485015194909701939093525050509386019390860190600101611c8f565b600060208284031215611d6357600080fd5b81356001600160a01b0381168114611d7a57600080fd5b9392505050565b60008060408385031215611d9457600080fd5b82359150602083013567ffffffffffffffff811115611db257600080fd5b611dbe8582860161184e565b9150509250929050565b634e487b7160e01b600052601160045260246000fd5b600060018201611df057611df0611dc8565b5060010190565b600181811c90821680611e0b57607f821691505b602082108103611e2b57634e487b7160e01b600052602260045260246000fd5b50919050565b601f821115610602576000816000526020600020601f850160051c81016020861015611e5a5750805b601f850160051c820191505b81811015611e7957828155600101611e66565b505050505050565b815167ffffffffffffffff811115611e9b57611e9b611807565b611eaf81611ea98454611df7565b84611e31565b602080601f831160018114611ee45760008415611ecc5750858301515b600019600386901b1c1916600185901b178555611e79565b600085815260208120601f198616915b82811015611f1357888601518255948401946001909101908401611ef4565b5085821015611f315787850151600019600388901b60f8161c191681555b5050505050600190811b01905550565b634e487b7160e01b600052603260045260246000fd5b60008251611f69818460208701611a4c565b9190910192915050565b80820180821115611f8657611f86611dc8565b92915050565b81810381811115611f8657611f86611dc8565b8082028115828204841417611f8657611f86611dc8565b600082611fd357634e487b7160e01b600052601260045260246000fd5b50049056fea2646970667358221220802976233ef4e303d3cf75a1e7feb90ff75ae55ccd48f82c2e73fe1d3648c62564736f6c63430008160033",
  "linkReferences": {},
  "deployedLinkReferences": {}
}